{
  "_format": "hh-sol-artifact-1",
  "contractName": "DataVault",
  "sourceName": "contracts/DataVault.sol",
  "abi": [
    {
      "anonymous": false,
      "inputs": [
        {
          "indexed": true,
          "internalType": "enum DataVault.DataType",
          "name": "dataType",
          "type": "uint8"
        },
        {
          "indexed": true,
          "internalType": "address",
          "name": "user",
          "type": "address"
        },
        {
          "indexed": false,
          "internalType": "string",
          "name": "fileHash",
          "type": "string"
        },
        {
          "indexed": false,
          "internalType": "string",
          "name": "decryptKey",
          "type": "string"
        },
        {
          "indexed": false,
          "internalType": "uint256",
          "name": "uploadTime",
          "type": "uint256"
        }
      ],
      "name": "DataAdded",
      "type": "event"
    },
    {
      "inputs": [
        {
          "components": [
            {
              "internalType": "enum DataVault.DataType",
              "name": "dataType",
              "type": "uint8"
            },
            {
              "internalType": "string",
              "name": "name",
              "type": "string"
            },
            {
              "internalType": "string",
              "name": "fileHash",
              "type": "string"
            },
            {
              "internalType": "string",
              "name": "decryptKey",
              "type": "string"
            },
            {
              "internalType": "uint256",
              "name": "uploadTime",
              "type": "uint256"
            }
          ],
          "internalType": "struct DataVault.DataStruct",
          "name": "_data",
          "type": "tuple"
        }
      ],
      "name": "addData",
      "outputs": [],
      "stateMutability": "nonpayable",
      "type": "function"
    },
    {
      "inputs": [],
      "name": "getAllData",
      "outputs": [
        {
          "components": [
            {
              "internalType": "enum DataVault.DataType",
              "name": "dataType",
              "type": "uint8"
            },
            {
              "internalType": "string",
              "name": "name",
              "type": "string"
            },
            {
              "internalType": "string",
              "name": "fileHash",
              "type": "string"
            },
            {
              "internalType": "string",
              "name": "decryptKey",
              "type": "string"
            },
            {
              "internalType": "uint256",
              "name": "uploadTime",
              "type": "uint256"
            }
          ],
          "internalType": "struct DataVault.DataStruct[]",
          "name": "allData",
          "type": "tuple[]"
        }
      ],
      "stateMutability": "view",
      "type": "function"
    },
    {
      "inputs": [],
      "name": "userAllDataCount",
      "outputs": [
        {
          "internalType": "uint256",
          "name": "",
          "type": "uint256"
        }
      ],
      "stateMutability": "view",
      "type": "function"
    },
    {
      "inputs": [
        {
          "internalType": "enum DataVault.DataType",
          "name": "_dataType",
          "type": "uint8"
        }
      ],
      "name": "userSpecifcDataCount",
      "outputs": [
        {
          "internalType": "uint256",
          "name": "",
          "type": "uint256"
        }
      ],
      "stateMutability": "view",
      "type": "function"
    }
  ],
  "bytecode": "0x608060405234801561001057600080fd5b50610f9a806100206000396000f3fe608060405234801561001057600080fd5b506004361061004c5760003560e01c80632d10fa28146100515780635e8107061461006f578063909fc07e1461008d578063da58cb45146100a9575b600080fd5b6100596100d9565b604051610066919061089a565b60405180910390f35b6100776103e2565b60405161008491906108cb565b60405180910390f35b6100a760048036038101906100a29190610b6a565b61042b565b005b6100c360048036038101906100be9190610bb3565b610514565b6040516100d091906108cb565b60405180910390f35b606060006100e56103e2565b90508067ffffffffffffffff811115610101576101006108ff565b5b60405190808252806020026020018201604052801561013a57816020015b6101276105f3565b81526020019060019003908161011f5790505b50915060005b818110156103dd576000803373ffffffffffffffffffffffffffffffffffffffff1673ffffffffffffffffffffffffffffffffffffffff168152602001908152602001600020818154811061019857610197610be0565b5b90600052602060002090600502016040518060a00160405290816000820160009054906101000a900460ff1660038111156101d6576101d5610660565b5b60038111156101e8576101e7610660565b5b81526020016001820180546101fc90610c3e565b80601f016020809104026020016040519081016040528092919081815260200182805461022890610c3e565b80156102755780601f1061024a57610100808354040283529160200191610275565b820191906000526020600020905b81548152906001019060200180831161025857829003601f168201915b5050505050815260200160028201805461028e90610c3e565b80601f01602080910402602001604051908101604052809291908181526020018280546102ba90610c3e565b80156103075780601f106102dc57610100808354040283529160200191610307565b820191906000526020600020905b8154815290600101906020018083116102ea57829003601f168201915b5050505050815260200160038201805461032090610c3e565b80601f016020809104026020016040519081016040528092919081815260200182805461034c90610c3e565b80156103995780601f1061036e57610100808354040283529160200191610399565b820191906000526020600020905b81548152906001019060200180831161037c57829003601f168201915b505050505081526020016004820154815250508382815181106103bf576103be610be0565b5b602002602001018190525080806103d590610c9e565b915050610140565b505090565b60008060003373ffffffffffffffffffffffffffffffffffffffff1673ffffffffffffffffffffffffffffffffffffffff16815260200190815260200160002080549050905090565b6000803373ffffffffffffffffffffffffffffffffffffffff1673ffffffffffffffffffffffffffffffffffffffff16815260200190815260200160002081908060018154018082558091505060019003906000526020600020906005020160009091909190915060008201518160000160006101000a81548160ff021916908360038111156104be576104bd610660565b5b021790555060208201518160010190816104d89190610e92565b5060408201518160020190816104ee9190610e92565b5060608201518160030190816105049190610e92565b5060808201518160040155505050565b60008061051f6103e2565b90506000805b828110156105e8578460038111156105405761053f610660565b5b6000803373ffffffffffffffffffffffffffffffffffffffff1673ffffffffffffffffffffffffffffffffffffffff16815260200190815260200160002082815481106105905761058f610be0565b5b906000526020600020906005020160000160009054906101000a900460ff1660038111156105c1576105c0610660565b5b036105d55781806105d190610c9e565b9250505b80806105e090610c9e565b915050610525565b508092505050919050565b6040518060a001604052806000600381111561061257610611610660565b5b8152602001606081526020016060815260200160608152602001600081525090565b600081519050919050565b600082825260208201905092915050565b6000819050602082019050919050565b7f4e487b7100000000000000000000000000000000000000000000000000000000600052602160045260246000fd5b600481106106a05761069f610660565b5b50565b60008190506106b18261068f565b919050565b60006106c1826106a3565b9050919050565b6106d1816106b6565b82525050565b600081519050919050565b600082825260208201905092915050565b60005b838110156107115780820151818401526020810190506106f6565b60008484015250505050565b6000601f19601f8301169050919050565b6000610739826106d7565b61074381856106e2565b93506107538185602086016106f3565b61075c8161071d565b840191505092915050565b6000819050919050565b61077a81610767565b82525050565b600060a08301600083015161079860008601826106c8565b50602083015184820360208601526107b0828261072e565b915050604083015184820360408601526107ca828261072e565b915050606083015184820360608601526107e4828261072e565b91505060808301516107f96080860182610771565b508091505092915050565b60006108108383610780565b905092915050565b6000602082019050919050565b600061083082610634565b61083a818561063f565b93508360208202850161084c85610650565b8060005b8581101561088857848403895281516108698582610804565b945061087483610818565b925060208a01995050600181019050610850565b50829750879550505050505092915050565b600060208201905081810360008301526108b48184610825565b905092915050565b6108c581610767565b82525050565b60006020820190506108e060008301846108bc565b92915050565b6000604051905090565b600080fd5b600080fd5b600080fd5b7f4e487b7100000000000000000000000000000000000000000000000000000000600052604160045260246000fd5b6109378261071d565b810181811067ffffffffffffffff82111715610956576109556108ff565b5b80604052505050565b60006109696108e6565b9050610975828261092e565b919050565b600080fd5b6004811061098c57600080fd5b50565b60008135905061099e8161097f565b92915050565b600080fd5b600080fd5b600067ffffffffffffffff8211156109c9576109c86108ff565b5b6109d28261071d565b9050602081019050919050565b82818337600083830152505050565b6000610a016109fc846109ae565b61095f565b905082815260208101848484011115610a1d57610a1c6109a9565b5b610a288482856109df565b509392505050565b600082601f830112610a4557610a446109a4565b5b8135610a558482602086016109ee565b91505092915050565b610a6781610767565b8114610a7257600080fd5b50565b600081359050610a8481610a5e565b92915050565b600060a08284031215610aa057610a9f6108fa565b5b610aaa60a061095f565b90506000610aba8482850161098f565b600083015250602082013567ffffffffffffffff811115610ade57610add61097a565b5b610aea84828501610a30565b602083015250604082013567ffffffffffffffff811115610b0e57610b0d61097a565b5b610b1a84828501610a30565b604083015250606082013567ffffffffffffffff811115610b3e57610b3d61097a565b5b610b4a84828501610a30565b6060830152506080610b5e84828501610a75565b60808301525092915050565b600060208284031215610b8057610b7f6108f0565b5b600082013567ffffffffffffffff811115610b9e57610b9d6108f5565b5b610baa84828501610a8a565b91505092915050565b600060208284031215610bc957610bc86108f0565b5b6000610bd78482850161098f565b91505092915050565b7f4e487b7100000000000000000000000000000000000000000000000000000000600052603260045260246000fd5b7f4e487b7100000000000000000000000000000000000000000000000000000000600052602260045260246000fd5b60006002820490506001821680610c5657607f821691505b602082108103610c6957610c68610c0f565b5b50919050565b7f4e487b7100000000000000000000000000000000000000000000000000000000600052601160045260246000fd5b6000610ca982610767565b91507fffffffffffffffffffffffffffffffffffffffffffffffffffffffffffffffff8203610cdb57610cda610c6f565b5b600182019050919050565b60008190508160005260206000209050919050565b60006020601f8301049050919050565b600082821b905092915050565b600060088302610d487fffffffffffffffffffffffffffffffffffffffffffffffffffffffffffffffff82610d0b565b610d528683610d0b565b95508019841693508086168417925050509392505050565b6000819050919050565b6000610d8f610d8a610d8584610767565b610d6a565b610767565b9050919050565b6000819050919050565b610da983610d74565b610dbd610db582610d96565b848454610d18565b825550505050565b600090565b610dd2610dc5565b610ddd818484610da0565b505050565b5b81811015610e0157610df6600082610dca565b600181019050610de3565b5050565b601f821115610e4657610e1781610ce6565b610e2084610cfb565b81016020851015610e2f578190505b610e43610e3b85610cfb565b830182610de2565b50505b505050565b600082821c905092915050565b6000610e6960001984600802610e4b565b1980831691505092915050565b6000610e828383610e58565b9150826002028217905092915050565b610e9b826106d7565b67ffffffffffffffff811115610eb457610eb36108ff565b5b610ebe8254610c3e565b610ec9828285610e05565b600060209050601f831160018114610efc5760008415610eea578287015190505b610ef48582610e76565b865550610f5c565b601f198416610f0a86610ce6565b60005b82811015610f3257848901518255600182019150602085019450602081019050610f0d565b86831015610f4f5784890151610f4b601f891682610e58565b8355505b6001600288020188555050505b50505050505056fea26469706673582212201b90c1dcc5bc2494a4d00b826daf7ac2b0688efc4337f6c84d289035e2799bf364736f6c63430008120033",
  "linkReferences": {},
  "deployedLinkReferences": {}
}