{
  "_format": "hh-sol-artifact-1",
  "contractName": "DataVault",
  "sourceName": "contracts/DataVault.sol",
  "abi": [
    {
      "inputs": [
        {
          "components": [
            {
              "internalType": "string",
              "name": "website",
              "type": "string"
            },
            {
              "internalType": "string",
              "name": "usernameOrEmailOrPhone",
              "type": "string"
            },
            {
              "internalType": "string",
              "name": "password",
              "type": "string"
            }
          ],
          "internalType": "struct DataVault.CredentialStruct",
          "name": "_credentialData",
          "type": "tuple"
        }
      ],
      "name": "addCredentialOfUser",
      "outputs": [],
      "stateMutability": "nonpayable",
      "type": "function"
    },
    {
      "inputs": [
        {
          "components": [
            {
              "internalType": "string",
              "name": "fileName",
              "type": "string"
            },
            {
              "internalType": "string",
              "name": "fileHash",
              "type": "string"
            },
            {
              "internalType": "string",
              "name": "decryptKey",
              "type": "string"
            }
          ],
          "internalType": "struct DataVault.FileStruct",
          "name": "_fileData",
          "type": "tuple"
        }
      ],
      "name": "addFileOfUser",
      "outputs": [],
      "stateMutability": "nonpayable",
      "type": "function"
    },
    {
      "inputs": [
        {
          "components": [
            {
              "internalType": "string",
              "name": "fileName",
              "type": "string"
            },
            {
              "internalType": "string",
              "name": "fileHash",
              "type": "string"
            },
            {
              "internalType": "string",
              "name": "decryptKey",
              "type": "string"
            }
          ],
          "internalType": "struct DataVault.FileStruct",
          "name": "_scretInfo",
          "type": "tuple"
        }
      ],
      "name": "addScreatInfoOfUser",
      "outputs": [],
      "stateMutability": "nonpayable",
      "type": "function"
    },
    {
      "inputs": [],
      "name": "getAllCredentialsOfUser",
      "outputs": [
        {
          "components": [
            {
              "internalType": "string",
              "name": "website",
              "type": "string"
            },
            {
              "internalType": "string",
              "name": "usernameOrEmailOrPhone",
              "type": "string"
            },
            {
              "internalType": "string",
              "name": "password",
              "type": "string"
            }
          ],
          "internalType": "struct DataVault.CredentialStruct[]",
          "name": "allCreds",
          "type": "tuple[]"
        }
      ],
      "stateMutability": "view",
      "type": "function"
    },
    {
      "inputs": [],
      "name": "getAllFilesOfUser",
      "outputs": [
        {
          "components": [
            {
              "internalType": "string",
              "name": "fileName",
              "type": "string"
            },
            {
              "internalType": "string",
              "name": "fileHash",
              "type": "string"
            },
            {
              "internalType": "string",
              "name": "decryptKey",
              "type": "string"
            }
          ],
          "internalType": "struct DataVault.FileStruct[]",
          "name": "allFiles",
          "type": "tuple[]"
        }
      ],
      "stateMutability": "view",
      "type": "function"
    },
    {
      "inputs": [],
      "name": "getAllScreatInfoOfUser",
      "outputs": [
        {
          "components": [
            {
              "internalType": "string",
              "name": "fileName",
              "type": "string"
            },
            {
              "internalType": "string",
              "name": "fileHash",
              "type": "string"
            },
            {
              "internalType": "string",
              "name": "decryptKey",
              "type": "string"
            }
          ],
          "internalType": "struct DataVault.FileStruct[]",
          "name": "allInfos",
          "type": "tuple[]"
        }
      ],
      "stateMutability": "view",
      "type": "function"
    }
  ],
  "bytecode": "0x608060405234801561001057600080fd5b506116be806100206000396000f3fe608060405234801561001057600080fd5b50600436106100625760003560e01c80633a1712b21461006757806369b4e3001461008557806391a14d38146100a1578063d2ec03c5146100bf578063e2ddf50d146100dd578063fbfe6164146100f9575b600080fd5b61006f610115565b60405161007c9190610e41565b60405180910390f35b61009f600480360381019061009a919061106e565b6103da565b005b6100a9610489565b6040516100b69190610e41565b60405180910390f35b6100c761074d565b6040516100d491906111d7565b60405180910390f35b6100f760048036038101906100f2919061106e565b610a12565b005b610113600480360381019061010e91906112b1565b610ac2565b005b60606000610121610b72565b90508067ffffffffffffffff81111561013d5761013c610e7c565b5b60405190808252806020026020018201604052801561017657816020015b610163610c4f565b81526020019060019003908161015b5790505b50915060005b818110156103d557600260003373ffffffffffffffffffffffffffffffffffffffff1673ffffffffffffffffffffffffffffffffffffffff16815260200190815260200160002081815481106101d5576101d46112fa565b5b90600052602060002090600302016040518060600160405290816000820180546101fe90611358565b80601f016020809104026020016040519081016040528092919081815260200182805461022a90611358565b80156102775780601f1061024c57610100808354040283529160200191610277565b820191906000526020600020905b81548152906001019060200180831161025a57829003601f168201915b5050505050815260200160018201805461029090611358565b80601f01602080910402602001604051908101604052809291908181526020018280546102bc90611358565b80156103095780601f106102de57610100808354040283529160200191610309565b820191906000526020600020905b8154815290600101906020018083116102ec57829003601f168201915b5050505050815260200160028201805461032290611358565b80601f016020809104026020016040519081016040528092919081815260200182805461034e90611358565b801561039b5780601f106103705761010080835404028352916020019161039b565b820191906000526020600020905b81548152906001019060200180831161037e57829003601f168201915b5050505050815250508382815181106103b7576103b66112fa565b5b602002602001018190525080806103cd906113c2565b91505061017c565b505090565b6000803373ffffffffffffffffffffffffffffffffffffffff1673ffffffffffffffffffffffffffffffffffffffff168152602001908152602001600020819080600181540180825580915050600190039060005260206000209060030201600090919091909150600082015181600001908161045791906115b6565b50602082015181600101908161046d91906115b6565b50604082015181600201908161048391906115b6565b50505050565b60606000610495610bbc565b90508067ffffffffffffffff8111156104b1576104b0610e7c565b5b6040519080825280602002602001820160405280156104ea57816020015b6104d7610c4f565b8152602001906001900390816104cf5790505b50915060005b81811015610748576000803373ffffffffffffffffffffffffffffffffffffffff1673ffffffffffffffffffffffffffffffffffffffff1681526020019081526020016000208181548110610548576105476112fa565b5b906000526020600020906003020160405180606001604052908160008201805461057190611358565b80601f016020809104026020016040519081016040528092919081815260200182805461059d90611358565b80156105ea5780601f106105bf576101008083540402835291602001916105ea565b820191906000526020600020905b8154815290600101906020018083116105cd57829003601f168201915b5050505050815260200160018201805461060390611358565b80601f016020809104026020016040519081016040528092919081815260200182805461062f90611358565b801561067c5780601f106106515761010080835404028352916020019161067c565b820191906000526020600020905b81548152906001019060200180831161065f57829003601f168201915b5050505050815260200160028201805461069590611358565b80601f01602080910402602001604051908101604052809291908181526020018280546106c190611358565b801561070e5780601f106106e35761010080835404028352916020019161070e565b820191906000526020600020905b8154815290600101906020018083116106f157829003601f168201915b50505050508152505083828151811061072a576107296112fa565b5b60200260200101819052508080610740906113c2565b9150506104f0565b505090565b60606000610759610c05565b90508067ffffffffffffffff81111561077557610774610e7c565b5b6040519080825280602002602001820160405280156107ae57816020015b61079b610c70565b8152602001906001900390816107935790505b50915060005b81811015610a0d57600160003373ffffffffffffffffffffffffffffffffffffffff1673ffffffffffffffffffffffffffffffffffffffff168152602001908152602001600020818154811061080d5761080c6112fa565b5b906000526020600020906003020160405180606001604052908160008201805461083690611358565b80601f016020809104026020016040519081016040528092919081815260200182805461086290611358565b80156108af5780601f10610884576101008083540402835291602001916108af565b820191906000526020600020905b81548152906001019060200180831161089257829003601f168201915b505050505081526020016001820180546108c890611358565b80601f01602080910402602001604051908101604052809291908181526020018280546108f490611358565b80156109415780601f1061091657610100808354040283529160200191610941565b820191906000526020600020905b81548152906001019060200180831161092457829003601f168201915b5050505050815260200160028201805461095a90611358565b80601f016020809104026020016040519081016040528092919081815260200182805461098690611358565b80156109d35780601f106109a8576101008083540402835291602001916109d3565b820191906000526020600020905b8154815290600101906020018083116109b657829003601f168201915b5050505050815250508382815181106109ef576109ee6112fa565b5b60200260200101819052508080610a05906113c2565b9150506107b4565b505090565b600260003373ffffffffffffffffffffffffffffffffffffffff1673ffffffffffffffffffffffffffffffffffffffff1681526020019081526020016000208190806001815401808255809150506001900390600052602060002090600302016000909190919091506000820151816000019081610a9091906115b6565b506020820151816001019081610aa691906115b6565b506040820151816002019081610abc91906115b6565b50505050565b600160003373ffffffffffffffffffffffffffffffffffffffff1673ffffffffffffffffffffffffffffffffffffffff1681526020019081526020016000208190806001815401808255809150506001900390600052602060002090600302016000909190919091506000820151816000019081610b4091906115b6565b506020820151816001019081610b5691906115b6565b506040820151816002019081610b6c91906115b6565b50505050565b6000600260003373ffffffffffffffffffffffffffffffffffffffff1673ffffffffffffffffffffffffffffffffffffffff16815260200190815260200160002080549050905090565b60008060003373ffffffffffffffffffffffffffffffffffffffff1673ffffffffffffffffffffffffffffffffffffffff16815260200190815260200160002080549050905090565b6000600160003373ffffffffffffffffffffffffffffffffffffffff1673ffffffffffffffffffffffffffffffffffffffff16815260200190815260200160002080549050905090565b60405180606001604052806060815260200160608152602001606081525090565b60405180606001604052806060815260200160608152602001606081525090565b600081519050919050565b600082825260208201905092915050565b6000819050602082019050919050565b600081519050919050565b600082825260208201905092915050565b60005b83811015610cf7578082015181840152602081019050610cdc565b60008484015250505050565b6000601f19601f8301169050919050565b6000610d1f82610cbd565b610d298185610cc8565b9350610d39818560208601610cd9565b610d4281610d03565b840191505092915050565b60006060830160008301518482036000860152610d6a8282610d14565b91505060208301518482036020860152610d848282610d14565b91505060408301518482036040860152610d9e8282610d14565b9150508091505092915050565b6000610db78383610d4d565b905092915050565b6000602082019050919050565b6000610dd782610c91565b610de18185610c9c565b935083602082028501610df385610cad565b8060005b85811015610e2f5784840389528151610e108582610dab565b9450610e1b83610dbf565b925060208a01995050600181019050610df7565b50829750879550505050505092915050565b60006020820190508181036000830152610e5b8184610dcc565b905092915050565b6000604051905090565b600080fd5b600080fd5b600080fd5b7f4e487b7100000000000000000000000000000000000000000000000000000000600052604160045260246000fd5b610eb482610d03565b810181811067ffffffffffffffff82111715610ed357610ed2610e7c565b5b80604052505050565b6000610ee6610e63565b9050610ef28282610eab565b919050565b600080fd5b600080fd5b600080fd5b600067ffffffffffffffff821115610f2157610f20610e7c565b5b610f2a82610d03565b9050602081019050919050565b82818337600083830152505050565b6000610f59610f5484610f06565b610edc565b905082815260208101848484011115610f7557610f74610f01565b5b610f80848285610f37565b509392505050565b600082601f830112610f9d57610f9c610efc565b5b8135610fad848260208601610f46565b91505092915050565b600060608284031215610fcc57610fcb610e77565b5b610fd66060610edc565b9050600082013567ffffffffffffffff811115610ff657610ff5610ef7565b5b61100284828501610f88565b600083015250602082013567ffffffffffffffff81111561102657611025610ef7565b5b61103284828501610f88565b602083015250604082013567ffffffffffffffff81111561105657611055610ef7565b5b61106284828501610f88565b60408301525092915050565b60006020828403121561108457611083610e6d565b5b600082013567ffffffffffffffff8111156110a2576110a1610e72565b5b6110ae84828501610fb6565b91505092915050565b600081519050919050565b600082825260208201905092915050565b6000819050602082019050919050565b600060608301600083015184820360008601526111008282610d14565b9150506020830151848203602086015261111a8282610d14565b915050604083015184820360408601526111348282610d14565b9150508091505092915050565b600061114d83836110e3565b905092915050565b6000602082019050919050565b600061116d826110b7565b61117781856110c2565b935083602082028501611189856110d3565b8060005b858110156111c557848403895281516111a68582611141565b94506111b183611155565b925060208a0199505060018101905061118d565b50829750879550505050505092915050565b600060208201905081810360008301526111f18184611162565b905092915050565b60006060828403121561120f5761120e610e77565b5b6112196060610edc565b9050600082013567ffffffffffffffff81111561123957611238610ef7565b5b61124584828501610f88565b600083015250602082013567ffffffffffffffff81111561126957611268610ef7565b5b61127584828501610f88565b602083015250604082013567ffffffffffffffff81111561129957611298610ef7565b5b6112a584828501610f88565b60408301525092915050565b6000602082840312156112c7576112c6610e6d565b5b600082013567ffffffffffffffff8111156112e5576112e4610e72565b5b6112f1848285016111f9565b91505092915050565b7f4e487b7100000000000000000000000000000000000000000000000000000000600052603260045260246000fd5b7f4e487b7100000000000000000000000000000000000000000000000000000000600052602260045260246000fd5b6000600282049050600182168061137057607f821691505b60208210810361138357611382611329565b5b50919050565b7f4e487b7100000000000000000000000000000000000000000000000000000000600052601160045260246000fd5b6000819050919050565b60006113cd826113b8565b91507fffffffffffffffffffffffffffffffffffffffffffffffffffffffffffffffff82036113ff576113fe611389565b5b600182019050919050565b60008190508160005260206000209050919050565b60006020601f8301049050919050565b600082821b905092915050565b60006008830261146c7fffffffffffffffffffffffffffffffffffffffffffffffffffffffffffffffff8261142f565b611476868361142f565b95508019841693508086168417925050509392505050565b6000819050919050565b60006114b36114ae6114a9846113b8565b61148e565b6113b8565b9050919050565b6000819050919050565b6114cd83611498565b6114e16114d9826114ba565b84845461143c565b825550505050565b600090565b6114f66114e9565b6115018184846114c4565b505050565b5b818110156115255761151a6000826114ee565b600181019050611507565b5050565b601f82111561156a5761153b8161140a565b6115448461141f565b81016020851015611553578190505b61156761155f8561141f565b830182611506565b50505b505050565b600082821c905092915050565b600061158d6000198460080261156f565b1980831691505092915050565b60006115a6838361157c565b9150826002028217905092915050565b6115bf82610cbd565b67ffffffffffffffff8111156115d8576115d7610e7c565b5b6115e28254611358565b6115ed828285611529565b600060209050601f831160018114611620576000841561160e578287015190505b611618858261159a565b865550611680565b601f19841661162e8661140a565b60005b8281101561165657848901518255600182019150602085019450602081019050611631565b86831015611673578489015161166f601f89168261157c565b8355505b6001600288020188555050505b50505050505056fea264697066735822122081447b6101dad5ab6f4136a5ae72883467f32a44ab7816afc5a8911c1d73f84464736f6c63430008120033",
  "linkReferences": {},
  "deployedLinkReferences": {}
}